:020000040800F2
:10000000C004002001010008E31B0008CD15000812
:10001000E11B0008AB060008C71D00080000000037
:10002000000000000000000000000000E71B0008C6
:10003000AD06000800000000E51B0008E91B0008F1
:100040001B0100081B0100081B0100081B01000820
:100050001B0100081B0100081B0100081B01000810
:100060001B0100081B0100081B0100081B01000800
:100070001B0100081B0100081B0100081B010008F0
:100080001B0100081B0100081B0100081B010008E0
:100090001B0100081B0100081B0100081B010008D0
:1000A0001B0100081B0100081B0100081B010008C0
:1000B0001B0100081B0100081B0100081B010008B0
:1000C0001B0100081B0100081B0100081B010008A0
:1000D0001B0100081B0100081B0100081B01000890
:1000E0001B0100081B0100081B010008DFF80CD0F1
:1000F00000F0A8FA00480047F5260008C0040020D8
:100100000648804706480047FEE7FEE7FEE7FEE7B1
:10011000FEE7FEE7FEE7FEE7FEE7FEE74B1C000812
:10012000ED000008202A04DB203A21FA02F0002129
:10013000704721FA02F3D040C2F1200291400843F7
:1001400019467047D2B201E000F8012B491EFBD2DC
:1001500070470022F6E710B513460A4604461946D2
:10016000FFF7F0FF204610BD0EB5C10F80EAE0702A
:100170000844CA07002140F233438DE80E000A46C6
:100180000B4600F058F803B000BD30B50B460146F1
:1001900000202022012409E021FA02F59D4205D326
:1001A00003FA02F5491B04FA02F52844151EA2F1D0
:1001B0000102F1DC30BD2DE9F05F054600209246DA
:1001C0009B4688460646814640241BE02846414619
:1001D00047462246FFF7A6FF53465A46C01A9141AA
:1001E00010D311461846224600F03EFA2D1A67EB4E
:1001F00001084F4622460120002100F035FA17EB96
:1002000000094E41201EA4F10104DFDC48463146BE
:100210002A464346BDE8F09F10B5141E73F1000452
:1002200008DA401C41F1000192185B411A4301D1E8
:1002300020F0010010BD2DE9F04D92469B4611B112
:10024000B1FA81F202E0B0FA80F22032904600F07A
:100250000BFA04460F4640EA0A0041EA0B015346F6
:100260005A46084313D0114653EA010019D0C8F189
:1002700040025046FFF756FF05460E465046594687
:10028000424600F0F1F9084305D0012004E0204681
:100290003946BDE8F08D0020054346EAE0762C4360
:1002A00037430A986305E40AA0EB08000022FD0A20
:1002B00044EA47540A3002D500200146E9E7010527
:1002C00010196941DDE9084500196941BDE8F04DA3
:1002D000A2E72DE9FE4F804681EA0300C00F0C46DD
:1002E000009021F0004123F00045B8EB0200A94145
:1002F00005D24046214690461C460B46024623F056
:100300000040104347D0270DC7F30A00C3F30A513A
:100310000290401A019040286BDAC3F3130040F4B6
:10032000801B0098924620B10023D2EB030A63EBB6
:100330000B0B01985946C0F14002504600F094F969
:1003400006460D4650465946019A00F09CF910EBBE
:1003500008006141002487EA115284EAE7731A43D6
:1003600040D0009A62B3019A012A4FEA075215DC85
:10037000001B61EB02014FF0004202EA0752CDE997
:100380000042001C41F5801132462B46FFF753FF17
:1003900003B0BDE8F08F40462146F9E7001B61EB52
:1003A0000201001C41F5801300185B412018A2F5E2
:1003B000001747EB030140EAD570B6196D4111E013
:1003C0006D084FEA360645EAC0754FEA0752001B32
:1003D00061EB0201001C41F5801149084FEA300031
:1003E0000019514132462B4603B0BDE8F04FFFF7EC
:1003F00013BF0098012240000023D0EB020263EB00
:10040000E073009821464FEAE074B8EB000061EB1E
:100410000401E9E783F000435BE781F0004158E71E
:100420002DE9FE4F81EA030404F0004421F000416D
:1004300000944FF0000B23F0004350EA01045ED01B
:1004400052EA03045BD0C3F30A54C1F30A552C44A7
:10045000A4F2F3340194A0FB0254C1F3130141F45C
:100460008011C3F3130343F4801301FB024400FB28
:10047000034E840A970A44EA815447EA8357A4FB4F
:10048000076802958D0A05FB07854FEA932C04FB4C
:100490000C542705029D4FEA065847EA1637B5EB7C
:1004A00008056EEB070C870E920E47EA811742EAA9
:1004B0008312A7FB0201B6EB0B0164EB00042B0DCA
:1004C00043EA0C335E1844EB1C50DA465146E7FB16
:1004D0000201C5F313044FEA0B3343EA14534FEA06
:1004E0000432019C43EA0603A4F10C040294009C2C
:1004F000CDE900B4FFF79FFE03B0BDE8F08F002008
:100500000146F9E72DE9F04D81EA030404F0004BC0
:1005100021F0004514464FF0000A23F0004150EA54
:10052000050220D054EA01021DD0C5F30A57024645
:10053000C5F31303C1F31300C1F30A5640F4801549
:1005400043F48013A7EB0608101BD64608F2FD38CB
:1005500073EB050002D308F1010801E092185B413A
:10056000B8F1000F03DA00200146BDE8F08D00204D
:100570004FF48011064684460EE0171B73EB050707
:1005800005D3121B63EB050306434CEA010C490833
:100590004FEA300092185B4150EA0107EDD152EA70
:1005A000030012D082EA040083EA0501084305D063
:1005B000101BAB4106D20122002306E000224FF0BF
:1005C000004302E06FF0010253101AEB06004CEBFF
:1005D000085110EB0A0041EB0B01BDE8F04DFFF7AD
:1005E0001BBEC1F30A52C1F3130140F2FF3341F4C1
:1005F00080119A4202DA00200146704740F23343EC
:100600009A42A2F2334202DC5242FFF78BBD00F065
:100610002BB8000030B5041E71F1000404DB4FF06C
:100620000044404264EB0101141E73F1000405DB39
:100630001C464FF00043524263EB0403994208BF4B
:10064000904230BD064C074D06E0E06840F00103E3
:1006500094E8070098471034AC42F6D3FFF74AFD00
:10066000E427000804280008202A04DB203A00FAC6
:1006700002F1002070479140C2F1200320FA03F3F9
:10068000194390407047202A06DBCB17203A41FAE5
:1006900002F043EAE07306E041FA02F3D040C2F10F
:1006A00020029140084319467047FEE7704772B632
:1006B000FEE7000070B5044600F0FEF80546601C39
:1006C00002D004480078044400F0F6F8401BA04231
:1006D000FAD370BD0C0000202DE9F84FDFF8B89177
:1006E0000024A9F1040B23460F2709F1040AABF1FA
:1006F000040EC9E00125A5402A40AA427DD1674EDB
:10070000D1F804C0ACEB0608B44532D014DCBCF11F
:10071000030F3AD009DCBCF1000F2AD0BCF1010F65
:100720001CD0BCF1020F31D11DE0BCF1110F17D06C
:10073000BCF1120F2AD119E0B8F5881F19D006DCD8
:10074000B8F5803F15D0B8F5801F1FD111E0B8F57E
:10075000001F0ED0B8F5041F18D10AE0CB6815E0D1
:10076000CB681B1D12E0CB6808330FE0CB680C335D
:100770000CE08B682BB1012B4FF0080303D04561CF
:1007800004E0042302E0056100E00023FF2A01D811
:10079000064601E000F104064FEA840501D9A5F1FF
:1007A0002005D6F8008007FA05FC28EA0C0803FAB1
:1007B00005F548EA0508C6F800804D68ED0062D5E9
:1007C000374DAE6946F00106AE61AD6924F003060F
:1007D00005F001050095334D06EB050CDCF80850DB
:1007E000A607360F07FA06F825EA0805DFF8B880ED
:1007F000404503D14FF0000817E044E0DFF8AC803B
:10080000404502D14FF001080FE0DFF8A4804045D9
:1008100002D14FF0020808E0DFF89880404502D18D
:100820004FF0030801E04FF0040808FA06F848EA20
:100830000508CCF808804D68D9F80060ED024D46F7
:1008400001D5164300E096432E604D68DAF800604B
:10085000AD02554601D5164300E096432E604D6823
:10086000DBF80060AD035D4601D5164300E096431A
:100870002E604D68DEF80060ED03754601D5164325
:1008800000E096432E60641C0D682A46E5407FF424
:1008900031AFBDE8F88F00000804014000001110DE
:1008A000001002400000014000080140000C01401F
:1008B00000100140001401400148806870470000AA
:1008C0000C00002070B5040025D094F83D000025F0
:1008D00020B984F83C50204600F07CFA242084F8AB
:1008E0003D002068016821F0010101602068016875
:1008F00041F4004101602068016821F40041016079
:1009000000F0C0FB4D4A6168914201D84C4900E0BB
:100910004C49884201D2012070BD4B492368B0FB8D
:10092000F1F15E6826F03F060E435E606368934215
:1009300006D94FF4967359434FF47A73B1FBF3F130
:100940002368491C1E6A26F03F063143196261681C
:10095000914210D84900401EB0FBF1F2521CC2F384
:100960000B02042A01D2042022E0B0FBF1F0401C6B
:10097000C0F30B001CE0A268F2B301EBC10303EB70
:100980000116431EB3FBF6F35B1C43F480431B05C7
:1009900049D092B301EBC10202EB0111401EB0FB42
:1009A000F1F0401CC0F30B0040F4804040F40040E4
:1009B0002168CA694CF6FF739A431043C861D4E9B1
:1009C000071001432068026822F0C0021143016051
:1009D000D4E9030101432068826848F2FF339A4357
:1009E00011438160D4E9050108432168CA6822F0F7
:1009F000FF021043C86001E00EE016E020680168C5
:100A000041F0010101602564202084F83D00256348
:100A100084F83E50002070BD01EB4106431EB3FB3D
:100A2000F6F35B1CB3E70120C2E701EB4101401E76
:100A3000B0FBF1F0401CC0F30B00B7E7A08601004B
:100A400080841E0000093D0040420F002DE9F84F50
:100A50001F4690468A460446DDF82890FFF72CFF93
:100A6000054694F83D0020287FD1192301224049F2
:100A70002046009500F0BAFE002876D194F83C009C
:100A8000012872D0012084F83C0020680168C90761
:100A900003D1016841F0010101602068016821F47F
:100AA00000610160212084F83D00102084F83E00A0
:100AB00000262664C4F824806785608D20852D4833
:100AC000E0622B464A465146204600F097FD90B919
:100AD000206841698069009036E02A4649462046F0
:100AE00000F062FF50B1206C042804D12068016836
:100AF00041F4007101600120BDE8F88F606A21684F
:100B000000780861606A401C6062618D491E6185E1
:100B1000218D491E89B2218522685369DB435B0719
:100B20000BD451B100781061606A401C6062608D26
:100B3000401E6085208D401E20852A46494620465D
:100B400000F028FE0028CED1208D0028C5D154F811
:100B50003D0B016841F400710160202004F81E097A
:100B6000E67766770020C7E7FFE70220C4E70000CA
:100B7000020010000000FFFF2DE9FF4F83B00025A9
:100B8000DDE910799A4693460446DDF848800095E1
:100B9000FFF792FE064694F83D0020287CD11923E9
:100BA000012288492046009600F020FE0028F5D159
:100BB00094F83C0001286FD0012084F83C002068A4
:100BC0000168C90703D1016841F001010160206893
:100BD000016821F400610160222084F83D0040207A
:100BE00084F83E0025646762A4F82A90608D208511
:100BF0007548E062CDE9008653465A46204604997E
:100C000000F04AFD00287CD1208DDFF8C09120271C
:100C100068B1012814D00228206801681ED041F470
:100C2000806101602068416980690090BCE02068B3
:100C3000416981690091016841F400710160B3E08C
:100C40002068016821F48061016072B62068416902
:100C500081690091016841F400710AE041F400618A
:100C6000016072B62068416981690091016821F4D0
:100C70008061016062B697E0032865D801280CD036
:100C8000022843464FF000024946204600960BD00A
:100C900000F0ACFDA8BB0CE091E032464146204696
:100CA00000F04AFE68BB72E000F0A0FD48BB72B6DF
:100CB00033E02068016821F48061016072B6206829
:100CC0000069616A0870606A401C6062208D401E85
:100CD0002085608D401E60853D4846F2A811006861
:100CE000B0FBF1F0C0EBC00000EB80000090401EB4
:100CF000009007D020684069C04340070DD5009898
:100D0000F5E727E044F8305F6773A573206940F08A
:100D10002000206162B625731CE02068016841F460
:100D20000071016020680069616A0870606A401C97
:100D30006062218D491E2185618D491E618562B6E3
:100D400021680969017026E032464146204600F0DC
:100D5000F3FD18B1012007B0BDE8F08F20680069ED
:100D6000616A0870606A401C6062208D401E81B21A
:100D70002185608D401E608520684269D2435207FC
:100D800012D4032903D1016821F480610160206835
:100D90000069616A0870606A401C6062208D401EB4
:100DA0002085608D401E6085208D00287FF464AF13
:100DB00084F83D7084F83E5084F83C50CBE7022024
:100DC000C9E70000020010000000FFFF040001005E
:100DD0001800002010B586B0002100910191029109
:100DE000039100681349884222D1134CA06940F056
:100DF0000800A061A069694600F0080004904FF463
:100E00004070009012200190032003900B48FFF7E0
:100E100063FC0B48416841F0E06141F00201416030
:100E2000E06940F40010E061E06900F40010049013
:100E300006B010BD0054004000100240000C0140FC
:100E400000000140024881680278114481607047C7
:100E50000C000020074810B5016841F01001016046
:100E6000032000F067F80F2000F006F800F024F8E7
:100E7000002010BD0020024070B50D4D04464FF417
:100E80007A712878B1FBF0F00A490968B1FBF0F0FB
:100E900000F0CEFA48B9102C07D200222146501E8D
:100EA00000F028F800206C6070BD012070BD0000CB
:100EB0000C000020180000200C4808B5816941F0A2
:100EC00001018161816901F001010091C16941F075
:100ED0008051C161C06900F08050009004484168B1
:100EE00021F0E06141F00071416008BD0010024056
:100EF00000000140F0B40E4B1B680C46C3F3022304
:100F0000C3F10705042D00D90425191D072901D2B5
:100F1000002300E0DB1E012606FA05F1491E2140F0
:100F200099409E40761E16403143F0BC00F05CBFF5
:100F30000CED00E0064900F0070208684FF6FF03D9
:100F4000184040EA0220034A10430860704700003E
:100F50000CED00E00000FA052DE9F0470F46050012
:100F600061D0434E306800F00700B84209D23068C3
:100F700020F0070038433060306800F00700B842C6
:100F800051D128683B4C810712D5400703D56068D2
:100F900040F4E06060602878000703D5606840F4A2
:100FA000605060606068A96820F0F00008436060ED
:100FB0002878C00728D06868012810D02168022846
:100FC00010D0890700292EDA616821F0030101435E
:100FD0006160FFF771FC804641F288390DE02168BD
:100FE0008903EFE78901EDE7FFF766FCA0EB080155
:100FF000494502D90320BDE8F0876068696800F0C0
:101000000C00B0EB810FEFD1306800F00700B84260
:101010000BD9306820F0070038433060306800F0AA
:101020000700B84201D00120E5E72878400705D540
:101030006068E96820F4E060084360602878000791
:1010400006D56068296920F4605040EAC1006060FC
:1010500000F038F86168084AC1F30311515CC840D8
:101060000649086006480068FFF706FF0020C2E74F
:101070000020024000100240CA270008180000208B
:10108000100000200448054900684968044AC1F37B
:101090000221515CC8407047180000200010024037
:1010A000DA2700080448054900684968044AC1F382
:1010B000C221515CC8407047180000200010024057
:1010C000DA2700080E4A51680E4801F00C03042B81
:1010D00011D0082B0FD10C48C1F38343C903C05C66
:1010E0000AD55168084AC1F34041921E515C054A35
:1010F0005043B0FBF1F0704704494843704700008B
:101100000010024000127A00BA27000800093D00D2
:101110002DE9F84F040070D02078C04DC00749D0A9
:101120006868C0F38100012807D06868C0F38100B7
:10113000022809D16868C00306D52868800339D51C
:1011400060680028E7D035E06068B0F5803F0BD0DC
:1011500010B1B0F5A02F11D0286820F4803028609D
:10116000286820F4802002E0286840F4803028605D
:10117000606890B1FFF7A0FB06460AE0286840F4DB
:1011800080202860F0E700BFFFF796FB801B6428F3
:1011900073D828688003F7D50CE0FFF78DFB06466F
:1011A00005E000BFFFF788FB801B6428F0D82868A3
:1011B0008003F7D420789A4E80074FF001094FF052
:1011C000000839D5686810F00C0F07D06868C0F3C4
:1011D0008100022809D16868C00306D42868800706
:1011E00014D52069012808D110E02069B0B1C6F8F3
:1011F0000090FFF761FB074605E00AE1FFF75CFBA3
:10120000C01B0228C4D828688007F7D52868616900
:1012100020F0F80040EAC10028600DE0C6F8008028
:10122000FFF74AFB074604E0FFF746FBC01B022816
:1012300023D828688007F7D4207800072CD5794870
:10124000A169D9B1C0F80090FFF736FB074604E06A
:10125000FFF732FBC01B02280FD8686A8007F7D55A
:1012600071484FF4FA510068B0FBF1F0009000BFF4
:101270000098411E0091FAD20EE080E0C0F8008094
:10128000FFF71AFB074604E0FFF716FBC01B022816
:1012900075D8686A8007F7D42078400760D5E86978
:1012A0000027C00008D4E86940F08050E861E86990
:1012B000012700F0805000905C480168C90513D4F4
:1012C0000168834641F480710160FFF7F5FA8246B8
:1012D00006E000BFFFF7F0FAA0EB0A0064284ED842
:1012E000DBF80000C005F5D5E06801280AD008B198
:1012F000052813D0286A20F001002862286A20F00F
:10130000040002E0286A40F001002862E06841F22F
:10131000883B98B1FFF7D0FA82460BE0286A40F08C
:1013200004002862EEE700BFFFF7C6FAA0EB0A014F
:1013300059455AD8286A8007F6D50CE0FFF7BCFA61
:10134000824605E0FFF7B8FAA0EB0A0159454CD8F0
:10135000286A8007F6D41FB1E86920F08050E86160
:10136000E06988B36968C1F38101022944D0022889
:10137000C6F8608004D0FFF79FFA044638E034E0F6
:10138000FFF79AFA074604E0FFF796FAC01B022817
:101390002BD828688001F7D4206AB0F5803F05D1AA
:1013A0006868A16820F4003008436860D4E9080147
:1013B0000843696821F4741108436860C6F86090B6
:1013C000FFF77AFA044606E025E000BFFFF774FA5B
:1013D000001B022809D828688001F7D51BE000BF50
:1013E000FFF76AFA001B022802D90320BDE8F88F34
:1013F00028688001F4D40EE00128F7D06868226ADA
:1014000000F48031914204D1616A00F47010884286
:1014100001D00120EAE70020E8E7000000100240C8
:101420000000424280044242180000200070004048
:1014300010B5401EB0F1807F01D3012010BD4FF0E8
:10144000E02460610F21601700F0CEFC0020A06155
:1014500007202061002010BD70B5040004D094F86E
:101460004100002510B106E0012070BD84F8405015
:10147000204600F023F8242084F841002068C16849
:1014800021F40051C160204600F008FC2068016989
:1014900021F4904101612068416921F02A014161F4
:1014A0002068C16841F40051C1606564202084F85F
:1014B000410084F842006563002070BD30B585B0FE
:1014C0000024009401940294039400681449884213
:1014D00024D11448816941F480418161816901F41A
:1014E00080410491816941F00401816180690E4D60
:1014F00000F0040004904FF400700090022001906E
:101500000320039069462846FFF7E6F82815CDE941
:101510000004694628460294FFF7DEF805B030BDA6
:101520000038014000100240000801402DE9F84356
:10153000044690F84100984616460D46202802D0F1
:101540000220BDE8F88385B17EB1002060642120CF
:1015500084F84100FFF7B0F9A6848146E684A068CC
:101560002027B0F5805F02D003E00120E9E7206981
:1015700010B12E4600250EE000260CE0802120460A
:1015800000F0E8FBA8B9C6B116F8010B2168486065
:10159000E08C401EE084E08C4B464FF00002CDF81A
:1015A00000800028EAD14FF04001204600F0D2FB35
:1015B00040B184F841700320C3E735F8020BC0F353
:1015C0000800E3E784F841700020BAE7FEE701680D
:1015D0004A69D24352050FD46FF480624A610021F8
:1015E00040F8301F202242738173026942F00402E6
:1015F000026101730120704700207047F8B504466E
:10160000C06A1E460D461746082807D0012805D097
:1016100010F5803F02D0206B122804D120680168A9
:1016200041F480710160134600224FF00111204601
:10163000009600F0DBF840B120680068C00502D5D4
:101640004FF4007020640320F8BD2069B0F5804F8E
:101650000ED00620216800EAD51040F0F0000861A5
:1016600033463A460B49204600F008F978B902E0C3
:1016700005F0FE0000E0E8B2216808610549334644
:101680003A46891F204600F0F9F80028DCD00120F6
:10169000F8BD0000080001002DE9F84F044600687D
:1016A00089460B9D01689846174641F480610160A8
:1016B0002068016841F48071016000954FF0011BC2
:1016C0000022594620460A9B00F090F84FF4007A19
:1016D00040B120680068C00501D5C4F840A00320CF
:1016E000BDE8F88F216809F0FE0008612B46284903
:1016F00020460A9A00F0C2F8F0BB20684169806970
:1017000000902A4620460A9900F04EF940B1206C1C
:1017100004283AD12068016841F40071016034E086
:10172000FEB2B8F1010F09D02168380A08612A46D3
:1017300020460A9900F038F90028E8D120680661AF
:101740002A4620460A9900F02FF90028DFD12068A8
:10175000016841F4807101600095002259462046DD
:101760000A9B00F043F80028B3D1216809F0FF007C
:1017700040F00100086100E007E02B4604492046E4
:101780000A9A00F07BF80028AAD00120A8E7000000
:101790000200010070B516460D4604461EE02046C4
:1017A000FFF715FF08B1012070BD681C16D0FFF7C8
:1017B00083F8801BA84200D885B920684069C043DF
:1017C00040070BD5002044F8300F20216173A0732F
:1017D000216941F0200121612073E4E7206840691C
:1017E000C0434007DBD4002070BD00002DE9F04766
:1017F000984617460D460446C1F30746DDF820908B
:101800002AE000BFB8F1FF3F26D0FFF755F8A0EB64
:101810000901414502D8B8F1000F1DD12068012E01
:1018200016D0806925EA00000004000C12D00020C8
:10183000B84211D1002044F8300F20216173A07309
:10184000216941F02001216120730120BDE8F0876A
:101850004069E7E70120EBE72068012E0AD08069A4
:1018600025EA00000004000C06D00020B842C9D0D0
:101870000020EBE74069F3E70120F7E72DE9F047A7
:10188000984616460D4604464FF000094FF0200AD0
:10189000C1F3074723E020684069C043400515D4E1
:1018A0002068016841F40071016021686FF4806074
:1018B0004861C4F8309084F83DA084F83E90216CD3
:1018C00041F00401216484F83C9021E0701C06D0B2
:1018D000FEF7F2FFA0EB0800B04203D816B1012FCB
:1018E0001FD021E02068012F15D0806925EA000073
:1018F0000004000C18D000BF44F8309F84F80DA0FD
:1019000084F80E90216941F02001216184F80C9047
:101910000120BDE8F087406925EA00000004000CC2
:10192000EAD12068406901E02068806925EA00006A
:101930000004000CAFD1ECE72DE9F0410025904602
:101940000E460446202728E04069C043C0060CD458
:1019500054F8301B6FF01000486144F81059677755
:10196000A577206A2062257714E0FEF7A5FFA0EB9B
:101970000800B04200D886B920684069C0434006DC
:101980000BD544F8305F6773A573206940F02000E1
:10199000206125730120BDE8F08120684169C943B9
:1019A0004906D1D40020F6E770B516460D46044628
:1019B0001EE02046FFF70BFE08B1012070BD681C39
:1019C00016D0FEF779FF801BA84200D885B92068A1
:1019D0004069C04300060BD5002044F8300F202199
:1019E0006173A073216941F0200121612073E4E754
:1019F00020684069C0430006DBD4002070BD2DE99B
:101A0000F0470746DDE9089A1D4690460E463B2002
:101A100000F05AF804463C2000F056F840EA042052
:101A200038803D2000F050F804463E2000F04CF88D
:101A300040EA042030803F2000F046F80446402071
:101A400000F042F840EA0420A8F80000432000F02B
:101A50003BF80446442000F037F840EA0420288090
:101A6000452000F031F80446462000F02DF840EA09
:101A70000420A9F80000472000F026F8044648207A
:101A800000F022F840EA0420AAF80000BDE8F08740
:101A900010B501216B2000F02BF800216C2000F024
:101AA00027F80921192000F023F806211A2000F058
:101AB0001FF818211B2000F01BF81821BDE810406A
:101AC0001C2000F015B800001FB54FF47A730122F6
:101AD00003A98DE80E00134602460448D021006891
:101AE000FFF74AF89DF80C0004B010BD1C00002060
:101AF00033B581B0084D4FF47A740094012301AAE4
:101B0000D0212868FEF7A2FF0094012302AAD02169
:101B10002868FEF79BFF3EBD1C000020114808B559
:101B2000816941F010018161816901F0100100912A
:101B3000816941F020018161816901F020010091FA
:101B4000816941F004018161816901F00401009122
:101B5000816941F008018161806900F0080000900E
:101B600008BD0000001002400D4810B50B4901608F
:101B70000C49416000214FF480428160C0E90312AA
:101B800041618161C1610162FEF79CFE002803D0C2
:101B9000BDE81040FEF78BBD10BD000000540040B2
:101BA00024000020A08601000C4810B50A490160FD
:101BB0004FF4E1314160002181600C22C160C0E935
:101BC00004128161C161FFF747FC002803D0BDE822
:101BD0001040FEF76CBD10BD0038014078000020B9
:101BE000FEE7FEE770477047FFF72CB930B58FB0BE
:101BF00028216846FEF7ADFA14210AA8FEF7A9FAD3
:101C000001210804CDE9001000240294022504916A
:101C1000CDE907504FF4E01009906846FFF778FAD5
:101C200008B172B6FEE70F20CDE90A054FF48060D7
:101C3000CDE90C4002210AA80E94FFF78DF9002887
:101C400001D072B6FEE70FB030BD704701680C31AD
:101C500051E8002F22F4907241E80023002BF5D1C7
:101C60000168143151E8002F22F0010241E80023FD
:101C7000002BF5D1016B012909D101680C3151E824
:101C8000002F22F0100241E80023002BF5D1202183
:101C900080F84210002101637047000070B50446CF
:101CA00000680169E26821F4405111430161216932
:101CB000A0680843616908432168CA6841F20C635F
:101CC0009A430243CA6020684169A26921F44071C5
:101CD000114341611E492068884202D1FFF7E2F9B1
:101CE00001E0FFF7CFF900EBC00101EB00126068E3
:101CF00064218000B2FBF0F3B3FBF1F36FF0180640
:101D00007343B2FBF0F5B2FBF0F605EB830532232B
:101D100003EB0515B5FBF1F5B6FBF1F605F0F005A3
:101D200005EB0615B2FBF0F6B2FBF0F0B0FBF1F0FC
:101D30006FF01802504306EB800003EB0010B0FB7D
:101D4000F1F0216800F00F002844886070BD0000A9
:101D5000003801402DE9F843984617460D460446E1
:101D6000089E24E0701C22D0FEF7A6FDA0EB080020
:101D7000B0421AD8CEB12068C168490717D5802D66
:101D800015D0402D13D00168C94309070FD401684D
:101D90000025406800902046FFF758FF0820606447
:101DA00084F840500120BDE8F8830320FBE7206859
:101DB000006835EA000004D00020B842D2D00020EC
:101DC000F1E70120F9E7FEE70FB4054B10B503A9D1
:101DD000044A029800F0EAF810BC5DF814FB000019
:101DE000DD260008200000200907090E002804DB7A
:101DF00000F1E02080F80014704700F00F0000F1BF
:101E0000E02080F8141D704702E008C8121F08C1C6
:101E1000002AFAD170477047002001E001C1121F6B
:101E2000002AFBD1704700002DE9FF5F82B000213E
:101E3000DDE90430020DDDF840B0034318D044F66C
:101E40001050A2F2FF3242431514119801281FD0FE
:101E5000A5EB0B00401C5FEA000A4FF000064E4F56
:101E6000DFF83891B046504615D5CAF1000413E0AA
:101E7000119801244AA3012801D16FEA0B010298AD
:101E8000119AC0E90031C0E9024206B0BDE8F09FF6
:101E9000CBF10000DFE704460021404A491842EB3D
:101EA0000450CDE9001012E0E00707D032463B466F
:101EB00040464946FEF7B4FA8046894632463B46DC
:101EC00010461946FEF7ACFA06460F466410002C81
:101ED000EAD1DDE90401DDE90023BAF1000F06DAF9
:101EE000FEF79EFA42464B46FEF79AFA05E0FEF7E9
:101EF00009FB42464B46FEF705FB04460E46002210
:101F0000284BFEF787FB03D84FF0FF30014607E070
:101F10000022254B20463146FEF7DBF9FEF761FB38
:101F2000102409E0002C0ADB0A220023FEF743F903
:101F3000039B30321A55641E50EA0102F2D1641C30
:101F4000039AC4F111031444119A012A03D0012207
:101F500008430DD10AE0084304D000204FF0110BD4
:101F6000119072E7A3EB0B056D1E0DE05B4504DDE0
:101F70004FF0000205F1010504E003DA4FF0000222
:101F8000A5F10105002AECD002981199C0E90231AF
:101F9000C0E9004579E70000000014400000F03F70
:101FA000300000000000F0430000E03F2DE9FF4F4B
:101FB00095B09B468946064600250FE2252877D135
:101FC00000242746F84A0121059400E0044316F84E
:101FD000013F203B01FA03F01042F7D130782A2864
:101FE00011D06FF02F033078A0F13002092A16D8F3
:101FF000059A44F0020402EB820203EB4202104411
:10200000761C0590EFE759F8042B0592002A03DAB5
:10201000504244F40054059044F00204761C307899
:102020002E2816D116F8010F44F004042A280DD0EA
:102030006FF02F023078A0F13003092B09D807EB9D
:10204000870302EB4303C718761CF3E759F8047BB8
:10205000761C30786C280FD006DC4C2817D0682806
:102060000DD06A2814D104E0742810D07A280FD13A
:102070000DE044F400140AE044F4801401E044F458
:1020800040147278824202D104F58014761C761CCA
:10209000307866280BD013DC582877D009DC00286C
:1020A00075D04528F6D04628F4D047281AD19DE1AE
:1020B00018E0632835D0642879D0652812D195E1DD
:1020C000702873D008DC6728F1D069286FD06E289B
:1020D0000DD06F2806D1B5E073282CD0752875D0A7
:1020E000782874D05A46179990476D1C75E1C4F34F
:1020F0000250022809D003280DD0D9F80010042876
:102100000DD00D6009F1040967E1D9F80010EA1754
:10211000C1E90052F6E7D9F800100D80F2E70D7022
:10212000F0E719F8041B8DF8001000208DF801006D
:10213000EA46012003E059F804AB4FF0FF30610795
:102140004FF0000102D40DE008F101018846B942C8
:102150000FDA8045F8DB1AF808100029F4D108E0FE
:1021600008F1010188468142FADB1AF808100029BB
:10217000F6D105985B46A0EB080721463846179A2A
:1021800000F094FA284400EB080507E04DE029E14F
:102190000DE01AF8010B5A4617999047B8F101085B
:1021A000F7D25B4621463846179A13E142E00A22ED
:1021B0000092C4F302524FF0000A022A08D059F8E4
:1021C00004CB032A4FEAEC710AD00DE029E02AE0A3
:1021D00009F1070121F00702F2E802C1914609E086
:1021E0000FFA8CFC4FEAEC71042A03D14FFA8CFCF5
:1021F0004FEAEC71002907DA0A460021DCF1000CF5
:1022000061EB02012D2202E0220504D52B228DF87C
:102210000420012203E0E20701D02022F7E79046E4
:1022200059E00A2102E010220DE010214FF0000ACF
:1022300000910BE010224FF0000A44F0040408273C
:10224000009203E008224FF0000A0092C4F3025209
:10225000022A05D059F804CB0021032A08D009E04E
:1022600009F1070121F00702F2E802C1914605E0F9
:102270001FFA8CFC042A01D10CF0FF0C4FF000086F
:10228000220728D5702806D0009B83F0100353EA5C
:102290000A0305D00EE040228DF80420012208E058
:1022A0005CEA010206D030228DF804208DF805008A
:1022B00002229046009B83F0080353EA0A030AD1E6
:1022C0005CEA010201D1620705D530228DF80420B5
:1022D0004FF001087F1E582804D034A003900EA8A8
:1022E00002900DE036A0F9E753466046009AFDF7EC
:1022F00062FF84460398825C0298401E029002703E
:102300005CEA0100F0D1029806A9081A00F1200A3F
:10231000600702D524F4803400E00127574502DD30
:10232000A7EB0A0000E0002000EB0A0100900598EE
:102330004144401A0590E00306D45B462146179AB3
:10234000059800F0B3F90544002706E001A85A46B5
:10235000C05D179990476D1C7F1C4745F6DBE00375
:102360000CD55B462146179A059800F09FF9054465
:1023700004E030205A46179990476D1C0099481E7A
:1023800000900029F5DC08E0029802995A4600788E
:10239000491C0291179990476D1CBAF10001AAF1EE
:1023A000010AF1DC65E10000092801003031323317
:1023B0003435363738396162636465660000000081
:1023C000303132333435363738394142434445466B
:1023D0000000000000F058F90544761C3078002811
:1023E0007FF4ECAD19B02846BDE8F08F620700D449
:1023F000062709F1070222F0070CFCE80223E14658
:1024000003F000485FEA080C02D00FF2702C0DE0D8
:102410005FEA045C02D50FF2682C07E05FEAC47C37
:1024200002D00FF2602C01E0AFF2700C4FF0FF38D9
:1024300023F00043CDF850C065280CD006DC4528B9
:1024400009D046281DD047283DD13DE0662818D048
:1024500067287ED138E00021112F01DB112000E038
:10246000781CCDE9000106A90EA8FFF7DDFCDDE927
:102470000F010E9A03910021009207F1010A0491C5
:102480004DE04FF000400097CDE9011006A90EA8DD
:10249000FFF7CAFCDDE90F0203920E9B119900229F
:1024A000DDF80CA00093049211B9791C00EB010A2D
:1024B000B7EB0A0004D4C0F1FF3007F1010A049021
:1024C000AAEB0700019044E0012F00DA0127002168
:1024D000112F01DD112000E03846CDE9000106A9E9
:1024E0000EA8FFF7A1FCDDE90F010E9A0391002170
:1024F00004910092BA4621070CD40399514500DAA1
:102500008A46BAF1010F05DD009AAAF10101515C7A
:10251000302908D0B84202DA10F1040F06DA01219E
:10252000CDE9011015E0AAF10101E9E7002805DC79
:10253000049901440491AAEB000102E0411C5145B9
:1025400000DD8A460499401A401C01904FF000407B
:102550000290200704D40198504501DBCDF8048097
:1025600000208DF84F0002980DF14F07B0F1004F99
:1025700025D02B200E9002984FF0020800280CDA8C
:10258000404202902D200E9007E00A210298FDF7AC
:10259000FCFD3031029007F8011DB8F10001A8F1EF
:1025A0000108F2DC02980028EFD1791E0E9808701D
:1025B000307800F0200040F0450007F8020D12A826
:1025C000C01B00F107081498007800B1012000EB4F
:1025D0000A01019801EBE07105984144401A401E40
:1025E0000590E00306D45B462146179A059800F053
:1025F0005DF805441498007818B15A461799904729
:102600006D1CE00324D55B462146179A059800F01F
:102610004DF805441CE00498002807DBDDE90301C0
:10262000884203DD0098405C179901E0179930203B
:102630005A469047049805F10105401C0490019802
:10264000401E019004D12E205A46179990476D1CC8
:10265000BAF10001AAF1010ADDDC05E017F8010B6F
:102660005A46179990476D1CB8F10001A8F101086E
:10267000F4DC5B462146179A0598ABE62D00000076
:102680002B000000200000002DE9F0410446002549
:102690001E461746880404D405E039462020B0477A
:1026A0006D1C641EF9D52846BDE8F0812DE9F04186
:1026B000044600251E469046C80301D5302700E099
:1026C0002027880404D505E041463846B0476D1CF4
:1026D000641EF9D52846BDE8F081000013B54FF619
:1026E000FF73012269460248FEF720FF00981CBDD7
:1026F000780000208AB0FEF7ADFBFFF777FAFFF70E
:102700000DFAFFF731FAFFF74FFAFFF7C1F94FF46F
:102710007A70FDF7CFFF1D4C1C490A31881ECDE9A8
:102720000001831E021F811F0838FFF768F9B4F902
:102730000A00FDF719FD02908A46B4F90800FDF77A
:1027400013FD81468B46B4F90600FDF70DFD0746E3
:102750008846B4F90400FDF707FD05460E46B4F9B6
:102760000200FDF701FDCDE90001B4F90000FDF71D
:10277000FBFC02460298CDE9080A0B4602A904A018
:1027800081E8E00BFFF720FBC6E700000000002017
:1027900041783D25662041793D256620417A3D25D9
:1027A000662047783D25662047793D256620477A93
:1027B0003D25660A00000000010202030405060729
:1027C00008090A0B0C0D0E0F10100000000000008D
:1027D00000000102030406070809000000000102CE
:1027E000030400000428000800000020240000006A
:1027F000081E000828280008240000209C0400006F
:10280000181E00080000000000000000000000008A
:1028100001000000100000000000000000127A001B
:0828200024000020000000006C
:04000005080000ED02
:00000001FF
